{
  "_format": "hh-sol-artifact-1",
  "contractName": "AVAXGods",
  "sourceName": "contracts/AvaxGods.sol",
  "abi": [
    {
      "inputs": [
        {
          "internalType": "string",
          "name": "_metadataURI",
          "type": "string"
        }
      ],
      "stateMutability": "nonpayable",
      "type": "constructor"
    },
    {
      "anonymous": false,
      "inputs": [
        {
          "indexed": true,
          "internalType": "address",
          "name": "account",
          "type": "address"
        },
        {
          "indexed": true,
          "internalType": "address",
          "name": "operator",
          "type": "address"
        },
        {
          "indexed": false,
          "internalType": "bool",
          "name": "approved",
          "type": "bool"
        }
      ],
      "name": "ApprovalForAll",
      "type": "event"
    },
    {
      "anonymous": false,
      "inputs": [
        {
          "indexed": false,
          "internalType": "string",
          "name": "battleName",
          "type": "string"
        },
        {
          "indexed": true,
          "internalType": "address",
          "name": "winner",
          "type": "address"
        },
        {
          "indexed": true,
          "internalType": "address",
          "name": "loser",
          "type": "address"
        }
      ],
      "name": "BattleEnded",
      "type": "event"
    },
    {
      "anonymous": false,
      "inputs": [
        {
          "indexed": true,
          "internalType": "string",
          "name": "battleName",
          "type": "string"
        },
        {
          "indexed": true,
          "internalType": "bool",
          "name": "isFirstMove",
          "type": "bool"
        }
      ],
      "name": "BattleMove",
      "type": "event"
    },
    {
      "anonymous": false,
      "inputs": [
        {
          "indexed": false,
          "internalType": "string",
          "name": "battleName",
          "type": "string"
        },
        {
          "indexed": true,
          "internalType": "address",
          "name": "player1",
          "type": "address"
        },
        {
          "indexed": true,
          "internalType": "address",
          "name": "player2",
          "type": "address"
        }
      ],
      "name": "NewBattle",
      "type": "event"
    },
    {
      "anonymous": false,
      "inputs": [
        {
          "indexed": true,
          "internalType": "address",
          "name": "owner",
          "type": "address"
        },
        {
          "indexed": false,
          "internalType": "uint256",
          "name": "id",
          "type": "uint256"
        },
        {
          "indexed": false,
          "internalType": "uint256",
          "name": "attackStrength",
          "type": "uint256"
        },
        {
          "indexed": false,
          "internalType": "uint256",
          "name": "defenseStrength",
          "type": "uint256"
        }
      ],
      "name": "NewGameToken",
      "type": "event"
    },
    {
      "anonymous": false,
      "inputs": [
        {
          "indexed": true,
          "internalType": "address",
          "name": "owner",
          "type": "address"
        },
        {
          "indexed": false,
          "internalType": "string",
          "name": "name",
          "type": "string"
        }
      ],
      "name": "NewPlayer",
      "type": "event"
    },
    {
      "anonymous": false,
      "inputs": [
        {
          "indexed": true,
          "internalType": "address",
          "name": "previousOwner",
          "type": "address"
        },
        {
          "indexed": true,
          "internalType": "address",
          "name": "newOwner",
          "type": "address"
        }
      ],
      "name": "OwnershipTransferred",
      "type": "event"
    },
    {
      "anonymous": false,
      "inputs": [
        {
          "indexed": false,
          "internalType": "address[2]",
          "name": "damagedPlayers",
          "type": "address[2]"
        }
      ],
      "name": "RoundEnded",
      "type": "event"
    },
    {
      "anonymous": false,
      "inputs": [
        {
          "indexed": true,
          "internalType": "address",
          "name": "operator",
          "type": "address"
        },
        {
          "indexed": true,
          "internalType": "address",
          "name": "from",
          "type": "address"
        },
        {
          "indexed": true,
          "internalType": "address",
          "name": "to",
          "type": "address"
        },
        {
          "indexed": false,
          "internalType": "uint256[]",
          "name": "ids",
          "type": "uint256[]"
        },
        {
          "indexed": false,
          "internalType": "uint256[]",
          "name": "values",
          "type": "uint256[]"
        }
      ],
      "name": "TransferBatch",
      "type": "event"
    },
    {
      "anonymous": false,
      "inputs": [
        {
          "indexed": true,
          "internalType": "address",
          "name": "operator",
          "type": "address"
        },
        {
          "indexed": true,
          "internalType": "address",
          "name": "from",
          "type": "address"
        },
        {
          "indexed": true,
          "internalType": "address",
          "name": "to",
          "type": "address"
        },
        {
          "indexed": false,
          "internalType": "uint256",
          "name": "id",
          "type": "uint256"
        },
        {
          "indexed": false,
          "internalType": "uint256",
          "name": "value",
          "type": "uint256"
        }
      ],
      "name": "TransferSingle",
      "type": "event"
    },
    {
      "anonymous": false,
      "inputs": [
        {
          "indexed": false,
          "internalType": "string",
          "name": "value",
          "type": "string"
        },
        {
          "indexed": true,
          "internalType": "uint256",
          "name": "id",
          "type": "uint256"
        }
      ],
      "name": "URI",
      "type": "event"
    },
    {
      "inputs": [],
      "name": "CELESTION",
      "outputs": [
        {
          "internalType": "uint256",
          "name": "",
          "type": "uint256"
        }
      ],
      "stateMutability": "view",
      "type": "function"
    },
    {
      "inputs": [],
      "name": "DEVIL",
      "outputs": [
        {
          "internalType": "uint256",
          "name": "",
          "type": "uint256"
        }
      ],
      "stateMutability": "view",
      "type": "function"
    },
    {
      "inputs": [],
      "name": "FIREBIRD",
      "outputs": [
        {
          "internalType": "uint256",
          "name": "",
          "type": "uint256"
        }
      ],
      "stateMutability": "view",
      "type": "function"
    },
    {
      "inputs": [],
      "name": "GRIFFIN",
      "outputs": [
        {
          "internalType": "uint256",
          "name": "",
          "type": "uint256"
        }
      ],
      "stateMutability": "view",
      "type": "function"
    },
    {
      "inputs": [],
      "name": "KAMO",
      "outputs": [
        {
          "internalType": "uint256",
          "name": "",
          "type": "uint256"
        }
      ],
      "stateMutability": "view",
      "type": "function"
    },
    {
      "inputs": [],
      "name": "KUKULKAN",
      "outputs": [
        {
          "internalType": "uint256",
          "name": "",
          "type": "uint256"
        }
      ],
      "stateMutability": "view",
      "type": "function"
    },
    {
      "inputs": [],
      "name": "MAX_ATTACK_DEFEND_STRENGH",
      "outputs": [
        {
          "internalType": "uint256",
          "name": "",
          "type": "uint256"
        }
      ],
      "stateMutability": "view",
      "type": "function"
    },
    {
      "inputs": [
        {
          "internalType": "uint8",
          "name": "_choice",
          "type": "uint8"
        },
        {
          "internalType": "string",
          "name": "_battleName",
          "type": "string"
        }
      ],
      "name": "attackOrDefendChoice",
      "outputs": [],
      "stateMutability": "nonpayable",
      "type": "function"
    },
    {
      "inputs": [
        {
          "internalType": "address",
          "name": "account",
          "type": "address"
        },
        {
          "internalType": "uint256",
          "name": "id",
          "type": "uint256"
        }
      ],
      "name": "balanceOf",
      "outputs": [
        {
          "internalType": "uint256",
          "name": "",
          "type": "uint256"
        }
      ],
      "stateMutability": "view",
      "type": "function"
    },
    {
      "inputs": [
        {
          "internalType": "address[]",
          "name": "accounts",
          "type": "address[]"
        },
        {
          "internalType": "uint256[]",
          "name": "ids",
          "type": "uint256[]"
        }
      ],
      "name": "balanceOfBatch",
      "outputs": [
        {
          "internalType": "uint256[]",
          "name": "",
          "type": "uint256[]"
        }
      ],
      "stateMutability": "view",
      "type": "function"
    },
    {
      "inputs": [],
      "name": "baseURI",
      "outputs": [
        {
          "internalType": "string",
          "name": "",
          "type": "string"
        }
      ],
      "stateMutability": "view",
      "type": "function"
    },
    {
      "inputs": [
        {
          "internalType": "string",
          "name": "",
          "type": "string"
        }
      ],
      "name": "battleInfo",
      "outputs": [
        {
          "internalType": "uint256",
          "name": "",
          "type": "uint256"
        }
      ],
      "stateMutability": "view",
      "type": "function"
    },
    {
      "inputs": [
        {
          "internalType": "uint256",
          "name": "",
          "type": "uint256"
        }
      ],
      "name": "battles",
      "outputs": [
        {
          "internalType": "enum IAvaxGods.BattleStatus",
          "name": "battleStatus",
          "type": "uint8"
        },
        {
          "internalType": "bytes32",
          "name": "battleHash",
          "type": "bytes32"
        },
        {
          "internalType": "string",
          "name": "name",
          "type": "string"
        },
        {
          "internalType": "address",
          "name": "winner",
          "type": "address"
        }
      ],
      "stateMutability": "view",
      "type": "function"
    },
    {
      "inputs": [
        {
          "internalType": "string",
          "name": "_name",
          "type": "string"
        }
      ],
      "name": "createBattle",
      "outputs": [
        {
          "components": [
            {
              "internalType": "enum IAvaxGods.BattleStatus",
              "name": "battleStatus",
              "type": "uint8"
            },
            {
              "internalType": "bytes32",
              "name": "battleHash",
              "type": "bytes32"
            },
            {
              "internalType": "string",
              "name": "name",
              "type": "string"
            },
            {
              "internalType": "address[2]",
              "name": "players",
              "type": "address[2]"
            },
            {
              "internalType": "uint8[2]",
              "name": "moves",
              "type": "uint8[2]"
            },
            {
              "internalType": "address",
              "name": "winner",
              "type": "address"
            }
          ],
          "internalType": "struct IAvaxGods.Battle",
          "name": "",
          "type": "tuple"
        }
      ],
      "stateMutability": "nonpayable",
      "type": "function"
    },
    {
      "inputs": [
        {
          "internalType": "string",
          "name": "_name",
          "type": "string"
        }
      ],
      "name": "createRandomGameToken",
      "outputs": [],
      "stateMutability": "nonpayable",
      "type": "function"
    },
    {
      "inputs": [
        {
          "internalType": "uint256",
          "name": "id",
          "type": "uint256"
        }
      ],
      "name": "exists",
      "outputs": [
        {
          "internalType": "bool",
          "name": "",
          "type": "bool"
        }
      ],
      "stateMutability": "view",
      "type": "function"
    },
    {
      "inputs": [
        {
          "internalType": "uint256",
          "name": "",
          "type": "uint256"
        }
      ],
      "name": "gameTokens",
      "outputs": [
        {
          "internalType": "string",
          "name": "name",
          "type": "string"
        },
        {
          "internalType": "uint256",
          "name": "id",
          "type": "uint256"
        },
        {
          "internalType": "uint256",
          "name": "attackStrength",
          "type": "uint256"
        },
        {
          "internalType": "uint256",
          "name": "defenseStrength",
          "type": "uint256"
        }
      ],
      "stateMutability": "view",
      "type": "function"
    },
    {
      "inputs": [],
      "name": "getAllBattles",
      "outputs": [
        {
          "components": [
            {
              "internalType": "enum IAvaxGods.BattleStatus",
              "name": "battleStatus",
              "type": "uint8"
            },
            {
              "internalType": "bytes32",
              "name": "battleHash",
              "type": "bytes32"
            },
            {
              "internalType": "string",
              "name": "name",
              "type": "string"
            },
            {
              "internalType": "address[2]",
              "name": "players",
              "type": "address[2]"
            },
            {
              "internalType": "uint8[2]",
              "name": "moves",
              "type": "uint8[2]"
            },
            {
              "internalType": "address",
              "name": "winner",
              "type": "address"
            }
          ],
          "internalType": "struct IAvaxGods.Battle[]",
          "name": "",
          "type": "tuple[]"
        }
      ],
      "stateMutability": "view",
      "type": "function"
    },
    {
      "inputs": [],
      "name": "getAllPlayerTokens",
      "outputs": [
        {
          "components": [
            {
              "internalType": "string",
              "name": "name",
              "type": "string"
            },
            {
              "internalType": "uint256",
              "name": "id",
              "type": "uint256"
            },
            {
              "internalType": "uint256",
              "name": "attackStrength",
              "type": "uint256"
            },
            {
              "internalType": "uint256",
              "name": "defenseStrength",
              "type": "uint256"
            }
          ],
          "internalType": "struct IAvaxGods.GameToken[]",
          "name": "",
          "type": "tuple[]"
        }
      ],
      "stateMutability": "view",
      "type": "function"
    },
    {
      "inputs": [],
      "name": "getAllPlayers",
      "outputs": [
        {
          "components": [
            {
              "internalType": "address",
              "name": "playerAddress",
              "type": "address"
            },
            {
              "internalType": "string",
              "name": "playerName",
              "type": "string"
            },
            {
              "internalType": "uint256",
              "name": "playerMana",
              "type": "uint256"
            },
            {
              "internalType": "uint256",
              "name": "playerHealth",
              "type": "uint256"
            },
            {
              "internalType": "bool",
              "name": "inBattle",
              "type": "bool"
            }
          ],
          "internalType": "struct IAvaxGods.Player[]",
          "name": "",
          "type": "tuple[]"
        }
      ],
      "stateMutability": "view",
      "type": "function"
    },
    {
      "inputs": [
        {
          "internalType": "string",
          "name": "_name",
          "type": "string"
        }
      ],
      "name": "getBattle",
      "outputs": [
        {
          "components": [
            {
              "internalType": "enum IAvaxGods.BattleStatus",
              "name": "battleStatus",
              "type": "uint8"
            },
            {
              "internalType": "bytes32",
              "name": "battleHash",
              "type": "bytes32"
            },
            {
              "internalType": "string",
              "name": "name",
              "type": "string"
            },
            {
              "internalType": "address[2]",
              "name": "players",
              "type": "address[2]"
            },
            {
              "internalType": "uint8[2]",
              "name": "moves",
              "type": "uint8[2]"
            },
            {
              "internalType": "address",
              "name": "winner",
              "type": "address"
            }
          ],
          "internalType": "struct IAvaxGods.Battle",
          "name": "",
          "type": "tuple"
        }
      ],
      "stateMutability": "view",
      "type": "function"
    },
    {
      "inputs": [
        {
          "internalType": "string",
          "name": "_battleName",
          "type": "string"
        }
      ],
      "name": "getBattleMoves",
      "outputs": [
        {
          "internalType": "uint256",
          "name": "P1Move",
          "type": "uint256"
        },
        {
          "internalType": "uint256",
          "name": "P2Move",
          "type": "uint256"
        }
      ],
      "stateMutability": "view",
      "type": "function"
    },
    {
      "inputs": [
        {
          "internalType": "address",
          "name": "addr",
          "type": "address"
        }
      ],
      "name": "getPlayer",
      "outputs": [
        {
          "components": [
            {
              "internalType": "address",
              "name": "playerAddress",
              "type": "address"
            },
            {
              "internalType": "string",
              "name": "playerName",
              "type": "string"
            },
            {
              "internalType": "uint256",
              "name": "playerMana",
              "type": "uint256"
            },
            {
              "internalType": "uint256",
              "name": "playerHealth",
              "type": "uint256"
            },
            {
              "internalType": "bool",
              "name": "inBattle",
              "type": "bool"
            }
          ],
          "internalType": "struct IAvaxGods.Player",
          "name": "",
          "type": "tuple"
        }
      ],
      "stateMutability": "view",
      "type": "function"
    },
    {
      "inputs": [
        {
          "internalType": "address",
          "name": "addr",
          "type": "address"
        }
      ],
      "name": "getPlayerToken",
      "outputs": [
        {
          "components": [
            {
              "internalType": "string",
              "name": "name",
              "type": "string"
            },
            {
              "internalType": "uint256",
              "name": "id",
              "type": "uint256"
            },
            {
              "internalType": "uint256",
              "name": "attackStrength",
              "type": "uint256"
            },
            {
              "internalType": "uint256",
              "name": "defenseStrength",
              "type": "uint256"
            }
          ],
          "internalType": "struct IAvaxGods.GameToken",
          "name": "",
          "type": "tuple"
        }
      ],
      "stateMutability": "view",
      "type": "function"
    },
    {
      "inputs": [],
      "name": "getTotalSupply",
      "outputs": [
        {
          "internalType": "uint256",
          "name": "",
          "type": "uint256"
        }
      ],
      "stateMutability": "view",
      "type": "function"
    },
    {
      "inputs": [
        {
          "internalType": "address",
          "name": "account",
          "type": "address"
        },
        {
          "internalType": "address",
          "name": "operator",
          "type": "address"
        }
      ],
      "name": "isApprovedForAll",
      "outputs": [
        {
          "internalType": "bool",
          "name": "",
          "type": "bool"
        }
      ],
      "stateMutability": "view",
      "type": "function"
    },
    {
      "inputs": [
        {
          "internalType": "string",
          "name": "_name",
          "type": "string"
        }
      ],
      "name": "isBattle",
      "outputs": [
        {
          "internalType": "bool",
          "name": "",
          "type": "bool"
        }
      ],
      "stateMutability": "view",
      "type": "function"
    },
    {
      "inputs": [
        {
          "internalType": "address",
          "name": "addr",
          "type": "address"
        }
      ],
      "name": "isPlayer",
      "outputs": [
        {
          "internalType": "bool",
          "name": "",
          "type": "bool"
        }
      ],
      "stateMutability": "view",
      "type": "function"
    },
    {
      "inputs": [
        {
          "internalType": "address",
          "name": "addr",
          "type": "address"
        }
      ],
      "name": "isPlayerToken",
      "outputs": [
        {
          "internalType": "bool",
          "name": "",
          "type": "bool"
        }
      ],
      "stateMutability": "view",
      "type": "function"
    },
    {
      "inputs": [
        {
          "internalType": "string",
          "name": "_name",
          "type": "string"
        }
      ],
      "name": "joinBattle",
      "outputs": [
        {
          "components": [
            {
              "internalType": "enum IAvaxGods.BattleStatus",
              "name": "battleStatus",
              "type": "uint8"
            },
            {
              "internalType": "bytes32",
              "name": "battleHash",
              "type": "bytes32"
            },
            {
              "internalType": "string",
              "name": "name",
              "type": "string"
            },
            {
              "internalType": "address[2]",
              "name": "players",
              "type": "address[2]"
            },
            {
              "internalType": "uint8[2]",
              "name": "moves",
              "type": "uint8[2]"
            },
            {
              "internalType": "address",
              "name": "winner",
              "type": "address"
            }
          ],
          "internalType": "struct IAvaxGods.Battle",
          "name": "",
          "type": "tuple"
        }
      ],
      "stateMutability": "nonpayable",
      "type": "function"
    },
    {
      "inputs": [],
      "name": "owner",
      "outputs": [
        {
          "internalType": "address",
          "name": "",
          "type": "address"
        }
      ],
      "stateMutability": "view",
      "type": "function"
    },
    {
      "inputs": [
        {
          "internalType": "address",
          "name": "",
          "type": "address"
        }
      ],
      "name": "playerInfo",
      "outputs": [
        {
          "internalType": "uint256",
          "name": "",
          "type": "uint256"
        }
      ],
      "stateMutability": "view",
      "type": "function"
    },
    {
      "inputs": [
        {
          "internalType": "address",
          "name": "",
          "type": "address"
        }
      ],
      "name": "playerTokenInfo",
      "outputs": [
        {
          "internalType": "uint256",
          "name": "",
          "type": "uint256"
        }
      ],
      "stateMutability": "view",
      "type": "function"
    },
    {
      "inputs": [
        {
          "internalType": "uint256",
          "name": "",
          "type": "uint256"
        }
      ],
      "name": "players",
      "outputs": [
        {
          "internalType": "address",
          "name": "playerAddress",
          "type": "address"
        },
        {
          "internalType": "string",
          "name": "playerName",
          "type": "string"
        },
        {
          "internalType": "uint256",
          "name": "playerMana",
          "type": "uint256"
        },
        {
          "internalType": "uint256",
          "name": "playerHealth",
          "type": "uint256"
        },
        {
          "internalType": "bool",
          "name": "inBattle",
          "type": "bool"
        }
      ],
      "stateMutability": "view",
      "type": "function"
    },
    {
      "inputs": [
        {
          "internalType": "string",
          "name": "_battleName",
          "type": "string"
        }
      ],
      "name": "quitBattle",
      "outputs": [],
      "stateMutability": "nonpayable",
      "type": "function"
    },
    {
      "inputs": [
        {
          "internalType": "string",
          "name": "_name",
          "type": "string"
        },
        {
          "internalType": "string",
          "name": "_gameTokenName",
          "type": "string"
        }
      ],
      "name": "registerPlayer",
      "outputs": [],
      "stateMutability": "nonpayable",
      "type": "function"
    },
    {
      "inputs": [],
      "name": "renounceOwnership",
      "outputs": [],
      "stateMutability": "nonpayable",
      "type": "function"
    },
    {
      "inputs": [
        {
          "internalType": "address",
          "name": "from",
          "type": "address"
        },
        {
          "internalType": "address",
          "name": "to",
          "type": "address"
        },
        {
          "internalType": "uint256[]",
          "name": "ids",
          "type": "uint256[]"
        },
        {
          "internalType": "uint256[]",
          "name": "amounts",
          "type": "uint256[]"
        },
        {
          "internalType": "bytes",
          "name": "data",
          "type": "bytes"
        }
      ],
      "name": "safeBatchTransferFrom",
      "outputs": [],
      "stateMutability": "nonpayable",
      "type": "function"
    },
    {
      "inputs": [
        {
          "internalType": "address",
          "name": "from",
          "type": "address"
        },
        {
          "internalType": "address",
          "name": "to",
          "type": "address"
        },
        {
          "internalType": "uint256",
          "name": "id",
          "type": "uint256"
        },
        {
          "internalType": "uint256",
          "name": "amount",
          "type": "uint256"
        },
        {
          "internalType": "bytes",
          "name": "data",
          "type": "bytes"
        }
      ],
      "name": "safeTransferFrom",
      "outputs": [],
      "stateMutability": "nonpayable",
      "type": "function"
    },
    {
      "inputs": [
        {
          "internalType": "address",
          "name": "operator",
          "type": "address"
        },
        {
          "internalType": "bool",
          "name": "approved",
          "type": "bool"
        }
      ],
      "name": "setApprovalForAll",
      "outputs": [],
      "stateMutability": "nonpayable",
      "type": "function"
    },
    {
      "inputs": [
        {
          "internalType": "string",
          "name": "newuri",
          "type": "string"
        }
      ],
      "name": "setURI",
      "outputs": [],
      "stateMutability": "nonpayable",
      "type": "function"
    },
    {
      "inputs": [
        {
          "internalType": "bytes4",
          "name": "interfaceId",
          "type": "bytes4"
        }
      ],
      "name": "supportsInterface",
      "outputs": [
        {
          "internalType": "bool",
          "name": "",
          "type": "bool"
        }
      ],
      "stateMutability": "view",
      "type": "function"
    },
    {
      "inputs": [
        {
          "internalType": "uint256",
          "name": "tokenId",
          "type": "uint256"
        }
      ],
      "name": "tokenURI",
      "outputs": [
        {
          "internalType": "string",
          "name": "",
          "type": "string"
        }
      ],
      "stateMutability": "view",
      "type": "function"
    },
    {
      "inputs": [],
      "name": "totalSupply",
      "outputs": [
        {
          "internalType": "uint256",
          "name": "",
          "type": "uint256"
        }
      ],
      "stateMutability": "view",
      "type": "function"
    },
    {
      "inputs": [
        {
          "internalType": "uint256",
          "name": "id",
          "type": "uint256"
        }
      ],
      "name": "totalSupply",
      "outputs": [
        {
          "internalType": "uint256",
          "name": "",
          "type": "uint256"
        }
      ],
      "stateMutability": "view",
      "type": "function"
    },
    {
      "inputs": [
        {
          "internalType": "address",
          "name": "newOwner",
          "type": "address"
        }
      ],
      "name": "transferOwnership",
      "outputs": [],
      "stateMutability": "nonpayable",
      "type": "function"
    },
    {
      "inputs": [
        {
          "internalType": "uint256",
          "name": "",
          "type": "uint256"
        }
      ],
      "name": "uri",
      "outputs": [
        {
          "internalType": "string",
          "name": "",
          "type": "string"
        }
      ],
      "stateMutability": "view",
      "type": "function"
    }
  ],
  "bytecode": "0x60806040523462000ab45762004ec9803803806200001d8162000af9565b92833981019060208183031262000ab4578051906001600160401b03821162000ab4570181601f8201121562000ab4578051906001600160401b0382116200073c5762000074601f8301601f191660200162000af9565b928284526020838301011162000ab45760005b82811062000a9e57600083850160200152835184906001600160401b0381116200073c57600254600181811c9116801562000a93575b60208210146200071b57601f811162000a51575b50806020601f8211600114620009d957600091620009cd575b508160011b916000199060031b1c1916176002555b60038054336001600160a01b0319821681179092556040516001600160a01b03909116907f8be0079c531659141344cd1fd0a4f28419497f9722a3daafe3b4186f6b6457e090600090a380516001600160401b0381116200073c57600554600181811c91168015620009c2575b60208210146200071b57601f81116200098b575b50602091601f8211600114620009215791819260009262000915575b50508160011b916000199060031b1c1916176005555b604051608081016001600160401b038111828210176200073c57604052620001d962000ad9565b6000815281526020810190600082526040810160008152606082019060008252600854680100000000000000008110156200073c57600181018060085581101562000768576008600052925180519460029490941b7ff3f7a9fe364faab93b216da50a3214154f22a0a2b415b23a84c8169e8b636ee30193906001600160401b0386116200073c578454600181811c911680156200090a575b60208210146200071b57601f8111620008d4575b50602090601f871160011462000865579580916003969760009262000859575b50508160011b9160001990871b1c19161785555b5160018501555160028401555191015560405160a081016001600160401b038111828210176200073c5760405260008152620002f562000ad9565b60008152602082015260006040820152600060608201526000608082015260075490680100000000000000008210156200073c576001820180600755821015620007685760076000528051600583027fa66cc928b5edb82af9bd49922954155ab7b0942694bea4ce44661d9a8736c68890810180546001600160a01b0319166001600160a01b039390931692909217909155602082015180519093906001600160401b0381116200073c5760016005830284010154600181811c911680156200084e575b60208210146200071b57601f811162000810575b506020601f82116001146200078a57918160059260049594608097986000926200077e575b50508160011b916000199060031b1c1916176001838302850101555b60408601516002838302850101556060860151600383830285010155020101910151151560ff801983541691161790556200044862000ab9565b60008152600060208201526200045d62000ab9565b60008082526020820152604051916001600160401b0360c08401908111908411176200073c5760c0830160405260008352600060208401526200049f62000ad9565b60008152604084015260608301526080820152600060a082015260095490680100000000000000008210156200073c5760018201806009558210156200076857600960005280517f6e1540171b6c0c960b71a7020d9f60077f6af931a8bbf590da0223dacf75c7af9060038110156200075257600784028201805460ff191660ff929092169190911781556020830151600182015560408301518051600290920191906001600160401b0382116200073c57825490600182811c9216801562000731575b60208310146200071b5781601f849311620006d9575b50602090601f83116001146200066e5760009262000662575b50508160011b916000199060031b1c19161790555b606082015160005b600281106200063c575050608082015192600093845b6002811062000614576007830284016005810187905560a086015160069190910180546001600160a01b0319166001600160a01b0392909216919091179055604051614370908162000b398239f35b9094602060019160ff885116908460031b60ff811b9283911b169119161796019101620005c5565b81516001600160a01b0316600360078702850183010155602090910190600101620005af565b01519050868062000592565b6000858152602081209350601f198516905b818110620006c05750908460019594939210620006a6575b505050811b019055620005a7565b015160001960f88460031b161c1916905586808062000698565b9293602060018192878601518155019501930162000680565b6200070990856000526020600020601f850160051c8101916020861062000710575b601f0160051c019062000b1f565b8762000579565b9091508190620006fb565b634e487b7160e01b600052602260045260246000fd5b91607f169162000563565b634e487b7160e01b600052604160045260246000fd5b634e487b7160e01b600052602160045260246000fd5b634e487b7160e01b600052603260045260246000fd5b015190508880620003f2565b60016005840285010160005260206000209560005b601f1984168110620007f7575082608096976004969593600193600596601f19811610620007dd575b505050811b016001838302850101556200040e565b015160001960f88460031b161c19169055888080620007c8565b828201518855600190970196602092830192016200079f565b62000847906001600585028601016000526020600020601f840160051c810191602085106200071057601f0160051c019062000b1f565b85620003cd565b90607f1690620003b9565b015190508780620002a6565b90601f198716918660005260206000209260005b818110620008bb57509160019391896003999a9410620008a2575b505050811b018555620002ba565b015160001983891b60f8161c1916905587808062000894565b9293602060018192878601518155019501930162000879565b6200090390866000526020600020601f890160051c81019160208a106200071057601f0160051c019062000b1f565b8662000286565b90607f169062000272565b0151905082806200019c565b601f19821692600560005260206000209160005b858110620009725750836001951062000958575b505050811b01600555620001b2565b015160001960f88460031b161c1916905582808062000949565b9192602060018192868501518155019401920162000935565b620009bb9060056000526020600020601f840160051c810191602085106200071057601f0160051c019062000b1f565b8262000180565b90607f16906200016c565b905082015183620000ea565b6002600090815260008051602062004ea98339815191529250601f198416905b81811062000a385750908360019493921062000a1e575b5050811b01600255620000ff565b84015160001960f88460031b161c19169055838062000a10565b91926020600181928689015181550194019201620009f9565b600260005262000a8c9060008051602062004ea9833981519152601f840160051c810191602085106200071057601f0160051c019062000b1f565b82620000d1565b90607f1690620000bd565b8060208092840101518282870101520162000087565b600080fd5b60408051919082016001600160401b038111838210176200073c57604052565b60405190602082016001600160401b038111838210176200073c57604052565b6040519190601f01601f191682016001600160401b038111838210176200073c57604052565b81811062000b2b575050565b6000815560010162000b1f56fe6080604052600436101561001257600080fd5b60003560e01c8062fdd58e14612cbd578063015a379214612bd457806301ffc9a714612b6657806302fe530514612a3f5780630677aa4e14612a2357806309c95e1014612a005780630e89341c1461294f57806310898e4c146129175780631107ae3d146128dd57806316801d171461289357806318160ddd146109e05780632711162e146128595780632ca04522146126dc5780632eb2c2d61461229b5780633835e2b51461223f5780634b114691146122055780634e1273f4146120675780634f558e79146120395780635c12cd4b146120015780635c93fc3d14611f18578063606d2e9614611e915780636c0360eb14611daf578063703730a514611d93578063715018a614611d315780637d55487f14611d15578063845f433b14611a245780638da5cb5b146119fb578063996d7bea1461196b5780639b09cc87146119155780639e4ecd11146118f95780639ec40aa3146118c1578063a1b4f57c146116c7578063a22cb465146115da578063ba27495614610ae6578063bd85b03914610aba578063bf034b6914610a2b578063bf103a4d146109fe578063c4e41b22146109e0578063c87b56dd146108d7578063d2198cc5146108bb578063de96cefc1461089f578063e985e9c514610849578063efa1c48214610760578063f1da733914610744578063f242432a1461037b578063f2fde38b146102af5763f71d96cb1461022057600080fd5b346102aa5760203660031901126102aa576004356007548110156102aa5760076000526005602060002091020160018060a01b0381541661026360018301613089565b9160028101549060ff600460038301549201541690610294604051958695865260a0602087015260a0860190612d3b565b9260408501526060840152151560808301520390f35b600080fd5b346102aa5760203660031901126102aa576102c8612cec565b6102d061316d565b6001600160a01b0390811690811561032757600380546001600160a01b03198116841790915560405160009390929091167f8be0079c531659141344cd1fd0a4f28419497f9722a3daafe3b4186f6b6457e08484a3f35b60405162461bcd60e51b815260206004820152602660248201527f4f776e61626c653a206e6577206f776e657220697320746865207a65726f206160448201526564647265737360d01b6064820152608490fd5b346102aa5760a03660031901126102aa57610394612cec565b61039c612d02565b90608480356001600160401b0381116102aa576103bd903690600401612e3c565b6001600160a01b03919083831633148015610719575b6103dc9061327a565b828516156103ea81156132de565b6103f56044356134f1565b6104006064356134f1565b91858716156106b9575b6105f9575b5050604435600052602094600086526040600020848616600052865260406000205461043f606435821015613338565b604435600052600087526040600020858716600052875260643590036040600020556044356000526000865260406000208482166000528652604060002061048a6064358254613397565b905560405160443581526064358782015284821690858716907fc3d58168c5ae7397731d063d5bbf3d657854427343f4c083240f7aacaa2d0f6260403392a4803b6104d2575b005b60a0600061051c958895604051978896879586938563f23a6e6160e01b9d8e87523360048801521660248601526044356044860152606435606486015284015260a4830190612d3b565b0393165af1600091816105ca575b506105a057505060019061053c61340d565b6308c379a01461056b575b5061054e57005b60405162461bcd60e51b8152806105676004820161349c565b0390fd5b61057361342b565b908161057f5750610547565b61056760405192839262461bcd60e51b845260048401526024830190612d3b565b6001600160e01b0319161490506104d05760405162461bcd60e51b815280610567600482016133c4565b6105eb919250843d86116105f2575b6105e38183612e00565b8101906133a4565b908461052a565b503d6105d9565b92959194909360005b84518110156106aa576106158186613266565b51906106218188613266565b51826000526004602052604060002054818110610655576106509360005260046020520360406000205561324a565b610602565b60405162461bcd60e51b815260206004820152602860248201527f455243313135353a206275726e20616d6f756e74206578636565647320746f74604482015267616c537570706c7960c01b60648201528b90fd5b5093509390949150858061040f565b959260009794919592975b865181101561070b57806106db610706928b613266565b516106e6828a613266565b5160005260046020526106ff6040600020918254613397565b905561324a565b6106c4565b50929596919490939661040a565b5082841660005260016020526040600020336000526020526103dc60ff6040600020541690506103d3565b346102aa5760003660031901126102aa57602060405160048152f35b346102aa5760003660031901126102aa5760075461077d81612f3f565b9061078b6040519283612e00565b80825260076000908152602091828401917fa66cc928b5edb82af9bd49922954155ab7b0942694bea4ce44661d9a8736c688835b8383106108265750505050604051918083019381845251809452604083019360408160051b85010192916000955b8287106107fa5785850386f35b909192938280610816600193603f198a82030186528851612fe8565b96019201960195929190926107ed565b600586600192610838859a999a613f76565b8152019201920191909594956107bf565b346102aa5760403660031901126102aa57610862612cec565b61086a612d02565b9060018060a01b03809116600052600160205260406000209116600052602052602060ff604060002054166040519015158152f35b346102aa5760003660031901126102aa57602060405160018152f35b346102aa5760003660031901126102aa57602060405160008152f35b346102aa576020806003193601126102aa576108f4600435614257565b9060405191826000916005549261090a8461304f565b6001948686821691826000146109bc57505060011461097b575b5092633539b7b760e11b6005939285602f60f81b610963975261094f825180938a8785019101612d18565b019182015203601a19810185520183612e00565b610977604051928284938452830190612d3b565b0390f35b8591506005600052816000206000905b8282106109a4575050830101633539b7b760e11b610924565b8054898301850152889550879390910190860161098b565b60ff19168187015282151590920285019091019150633539b7b760e11b9050610924565b346102aa5760003660031901126102aa576020600654604051908152f35b346102aa5760203660031901126102aa576020610a21610a1c612cec565b613eba565b6040519015158152f35b346102aa5760203660031901126102aa576004356008548110156102aa576008600052610aa69060021b7ff3f7a9fe364faab93b216da50a3214154f22a0a2b415b23a84c8169e8b636ee301610a8081613089565b906001810154906003600282015491015490604051948594608086526080860190612d3b565b926020850152604084015260608301520390f35b346102aa5760203660031901126102aa5760043560005260046020526020604060002054604051908152f35b346102aa5760403660031901126102aa5760043560ff81168091036102aa576024356001600160401b0381116102aa57610b24903690600401612e3c565b90610b2e826141de565b805160038110156115c457600114806115af575b1561155a5760806060820191610b6d835160018060a01b038151163314908115611543575b50613c67565b01518151516001600160a01b0316330361153b576000905b600260ff8316101561143357611fe060ff9260051b160151166114f65751516001600160a01b031633036114ef5760005b600182148080156114e5575b156114a057156114995760036040610bd933613fc6565b015110155b156114495760405191610c0f84519360208181880196610bff81838a612d18565b8101600c81520301902054613030565b5090600260ff8416101561143357601f6005610c4593600786831c160101931683549060031b60ff811b9283911b169119161790565b90556080610c52836141de565b0180515160ff1661142a5760ff60005b166002039060ff821161102357516020015160ff166114205760ff8060005b1691160360ff81116110235760ff16906001820361141557610cb16001915b604051809281928751928391612d18565b8101039020901515907f54b82b77e7ae55a8e6c9e89deba70c7191dea2a3b08ae647b380e9f981d6a0f86000604051a315610ce857005b610cf1906141de565b606081015180516001600160a01b031633149081156113fe575b50156113a557608081015160ff81511615159081611394575b50156113455760018060a01b0360608201515116600052600a60205260406000205460ff608083015151166060610d6660018060a01b03828601515116613fc6565b0151606084015151604090610d83906001600160a01b031661409f565b015160608581015151919291610da1906001600160a01b031661409f565b01519260405194610db186612dca565b8552602085015260408401526060830152608082015260018060a01b0360206060840151015116600052600a60205260406000205460ff602060808501510151166060610e0c60018060a01b03602083880151015116613fc6565b0151606085015160200151604090610e2c906001600160a01b031661409f565b015160608681015160200151919291610e4d906001600160a01b031661409f565b01519260405194610e5d86612dca565b8552602085015260408401526060830152608082015260405191610e8083612d94565b600083526000602084015282602082015160018114808091611337575b1561110a575050506060810151604083015111611059575050606082015151610ed09083906001600160a01b0316613d31565b505b604051906000825b600282106110395750505060407fc6bf860cbc15f7020f73993a671f01bbb1831a8a7a12c126ca735eb632e7577591a160006080820151526000602060808301510152610f2b816040810151613f0c565b606081015151610f43906001600160a01b0316613cc0565b60018060a01b0360608301515116600052600b602052806002610f6a60406000205461312f565b500155600a03600a81116110235760018060a01b0360608301515116600052600b6020526003610f9e60406000205461312f565b500155606081015160200151610fbc906001600160a01b0316613cc0565b60018060a01b0360206060840151015116600052600b602052806002610fe660406000205461312f565b500155600a0390600a8211611023576020606060018060a01b03920151015116600052600b602052600361101e60406000205461312f565b500155005b634e487b7160e01b600052601160045260246000fd5b82516001600160a01b031681526020928301926001929092019101610eda565b60608201516040820151811061108f575050506060820151602001516110899083906001600160a01b0316613d31565b50610ed2565b6002929350906110d0916110b260036110a8845161314e565b5001918254613cb3565b905560608101516110c860036110a8875161314e565b90555161314e565b500180546002199283820192918311611023576002926110f192555161314e565b5001805491820191821161102357556060810151610ed2565b80611329575b156111e357506111296040840151608085015190613397565b6060830151909290918383106111585750505060608401515161108992508491506001600160a01b0316613d31565b60029361118b93806080880151116000146111c05750505060408401515b6003611182865161314e565b5001555161314e565b50018054600219810192908311611023576002926111aa92555161314e565b5001805490600382018092116110235755610ed2565b6111c991613cb3565b6060880151602001516001600160a01b0316909152611176565b600214808061131b575b156112b757506112066040830151608084015190613397565b6060840151909290918383106112385750505060608401516020015161108992508491506001600160a01b0316613d31565b60029361126293806080850151116000146112975750505060408101515b6003611182835161314e565b5001805491600383018093116110235760029261128092555161314e565b500180546002198101919082116110235755610ed2565b6112a091613cb3565b6060880151516001600160a01b0316909152611256565b90508061130d575b6112cb575b5050610ed2565b6112d76002915161314e565b500180549160038301809311611023576002926112f592555161314e565b500180549060038201809211611023575582806112c4565b5060026020830151146112bf565b5060016020850151146111ed565b506002602085015114611110565b506001602086015114610e9d565b60405162461bcd60e51b815260206004820152602160248201527f506c6179657273207374696c6c206e65656420746f206d616b652061206d6f766044820152606560f81b6064820152608490fd5b60ff91506020015116151582610d24565b60405162461bcd60e51b815260206004820152602b60248201527f4f6e6c7920706c617965727320696e207468697320626174746c652063616e2060448201526a6d616b652061206d6f766560a81b6064820152608490fd5b602001516001600160a01b03163314905082610d0b565b610cb1600091610ca0565b60ff806001610c81565b60ff6001610c62565b634e487b7160e01b600052603260045260246000fd5b60405162461bcd60e51b815260206004820152602260248201527f4d616e61206e6f742073756666696369656e7420666f722061747461636b696e604482015261672160f01b6064820152608490fd5b6001610bde565b60405162461bcd60e51b815260206004820152601f60248201527f43686f6963652073686f756c64206265206569746865722031206f72203221006044820152606490fd5b5060028314610bc2565b6001610bb6565b60405162461bcd60e51b815260206004820152601d60248201527f596f75206861766520616c7265616479206d6164652061206d6f7665210000006044820152606490fd5b600190610b85565b602001516001600160a01b03163314905087610b67565b60405162461bcd60e51b815260206004820152602760248201527f426174746c65206e6f742073746172746564206f7220616c72656164792066696044820152666e69736865642160c81b6064820152608490fd5b50805160038110156115c45760021415610b42565b634e487b7160e01b600052602160045260246000fd5b346102aa5760403660031901126102aa576115f3612cec565b60243590811515908183036102aa576001600160a01b031691338314611670576116429033600052600160205260406000208460005260205260406000209060ff801983541691151516179055565b6040519081527f17307eab39ab6107e8899845ad3d59bd9653f200f220920489ca2b5937696c3160203392a3005b60405162461bcd60e51b815260206004820152602960248201527f455243313135353a2073657474696e6720617070726f76616c20737461747573604482015268103337b91039b2b63360b91b6064820152608490fd5b346102aa576020806003193601126102aa576004356001600160401b0381116102aa576116f8903690600401612e3c565b90611701613a48565b5061170b826141de565b91825160038110156115c457611882576060830180515190916001600160a01b03918216331461183d57608061174033613fc6565b0151611804578461175a9160018252338686510152613f0c565b8082515116600052600a8352600461177660406000205461314e565b500160ff199060018282541617905581848451015116600052600a8452600160046117a560406000205461314e565b5001918254161790556040840151915151167f024187b16c217a79f8d8e6252b542ec6e278fa91304acd9cfd866f2bbf00bd08604051848152806117ed339587830190612d3b565b0390a3610977604051928284938452830190612e90565b60405162461bcd60e51b8152600481018590526011602482015270416c726561647920696e20626174746c6560781b6044820152606490fd5b60405162461bcd60e51b815260048101859052601f60248201527f4f6e6c7920706c6179657220322063616e206a6f696e206120626174746c65006044820152606490fd5b60405162461bcd60e51b8152600481018390526017602482015276426174746c6520616c726561647920737461727465642160481b6044820152606490fd5b346102aa5760203660031901126102aa576004356001600160401b0381116102aa576118f46104d0913690600401612e3c565b613579565b346102aa5760003660031901126102aa57602060405160058152f35b346102aa5760203660031901126102aa576004356001600160401b0381116102aa57608061195161194c6040933690600401612e3c565b6141de565b015160ff6020818351169201511682519182526020820152f35b346102aa5760203660031901126102aa576004356001600160401b0381116102aa5761194c61199e913690600401612e3c565b606081019081516119c360018060a01b03918281511633149081156119eb5750613c67565b82515181163381036119df575060206104d09351015116613d31565b90506104d09250613d31565b6020015183163314905085610b67565b346102aa5760003660031901126102aa576003546040516001600160a01b039091168152602090f35b346102aa5760403660031901126102aa576001600160401b036004358181116102aa57611a55903690600401612e3c565b6024358281116102aa57611a6d903690600401612e3c565b611a7633613e94565b611cd457600754604051611a8981612dca565b33815260209485820185815260408301600a8152606084019160198352608085019360008552600160401b871015611ca85760018701600755611acb8761314e565b969096611cbe575186546001600160a01b0319166001600160a01b03919091161786559051805160018701929091908211611ca857611b0a835461304f565b8b601f8211611c6c575b50508a90601f8311600114611bd05794611b9a94611bad989484600495611bc09d9a957f81ef79d1cda814a60c0fc60792e648a06d9c6bae67176346d1cc8b63030bfccd9f9d9a600092611bc5575b50508160011b916000199060031b1c19161790555b51600285015551600384015551151591019060ff801983541691151516179055565b33600052600a8752604060002055613579565b6040519182918583523395830190612d3b565b0390a2005b015190503880611b63565b60008481528c8120929190601f198516908e5b828210611c5457505094600185611bc09d9a957f81ef79d1cda814a60c0fc60792e648a06d9c6bae67176346d1cc8b63030bfccd9f9d9a95611b9a9a95600499611bad9f9b10611c3b575b505050811b019055611b78565b015160001960f88460031b161c19169055388080611c2e565b80600186978294978701518155019601940190611be3565b611c9791856000528160002090601f860160051c8201928610611c9e575b601f0160051c0190613516565b8b8b611b14565b9091508190611c8a565b634e487b7160e01b600052604160045260246000fd5b634e487b7160e01b600052600060045260246000fd5b60405162461bcd60e51b8152602060048201526019602482015278141b185e595c88185b1c9958591e481c9959da5cdd195c9959603a1b6044820152606490fd5b346102aa5760003660031901126102aa576020604051600a8152f35b346102aa5760003660031901126102aa57611d4a61316d565b600380546001600160a01b0319811690915560405160009182906001600160a01b03167f8be0079c531659141344cd1fd0a4f28419497f9722a3daafe3b4186f6b6457e08284a3f35b346102aa5760003660031901126102aa57602060405160028152f35b346102aa5760003660031901126102aa57604051600090600554611dd28161304f565b808352600191808316908115611e695750600114611e0f575b61097783611dfb81870382612e00565b604051918291602083526020830190612d3b565b6005600090815260209450917f036b6384b5eca791c62761152d0c79bb0604c104a5fb6f4eb0703f3154bb3db05b828410611e5657505050810190910190611dfb81611deb565b8054858501870152928501928101611e3d565b6109779550611dfb93506020915091849260ff191682840152151560051b8201019350611deb565b346102aa5760203660031901126102aa576004356009548110156102aa57611ef89060096000526007602060002091020160ff81541690611f0e600182015491611edd60028201613089565b90600660018060a01b03910154169260405195868096612e83565b6020850152608060408501526080840190612d3b565b9060608301520390f35b346102aa5760003660031901126102aa57600954611f3581612f3f565b90611f436040519283612e00565b80825260096000908152602091828401917f6e1540171b6c0c960b71a7020d9f60077f6af931a8bbf590da0223dacf75c7af835b838310611fde5750505050604051918083019381845251809452604083019360408160051b85010192916000955b828710611fb25785850386f35b909192938280611fce600193603f198a82030186528851612e90565b9601920196019592919092611fa5565b600786600192611ff0859a999a61411e565b815201920192019190959495611f77565b346102aa5760203660031901126102aa57610977612025612020612cec565b613fc6565b604051918291602083526020830190612fe8565b346102aa5760203660031901126102aa57600435600052600460205260206040600020541515604051908152f35b346102aa5760403660031901126102aa576004356001600160401b038082116102aa57366023830112156102aa578160040135906120a482612f3f565b926120b26040519485612e00565b82845260209260248486019160051b830101913683116102aa57602401905b8282106121e6575050506024359081116102aa576120f3903690600401612f56565b825181510361218f5782519261210884612f3f565b936121166040519586612e00565b808552612125601f1991612f3f565b01368486013760005b815181101561217857612173906121636001600160a01b036121508386613266565b511661215c8387613266565b51906131c5565b61216d8288613266565b5261324a565b61212e565b505050610977604051928284938452830190612fb4565b60405162461bcd60e51b815260048101839052602960248201527f455243313135353a206163636f756e747320616e6420696473206c656e677468604482015268040dad2e6dac2e8c6d60bb1b6064820152608490fd5b81356001600160a01b03811681036102aa5781529084019084016120d1565b346102aa5760203660031901126102aa576001600160a01b03612226612cec565b16600052600a6020526020604060002054604051908152f35b346102aa5760203660031901126102aa576004356001600160401b0381116102aa57612288602061227581933690600401612e3c565b8160405193828580945193849201612d18565b8101600c81520301902054604051908152f35b346102aa5760031960a0368201126102aa576122b5612cec565b906122be612d02565b906001600160401b03604480358281116102aa576122e0903690600401612f56565b9060649081358481116102aa576122fb903690600401612f56565b9460849485359081116102aa57612316903690600401612e3c565b6001600160a01b0398891698909190338a1480156126b3575b6123389061327a565b855188510361266057881695861561235081156132de565b8a1561261d575b612558575b60005b86518110156123ef57806123766123ea9289613266565b518c612382838d613266565b51918060005282602092600084526040600020816000528452604060002054906123ae83831015613338565b8360005260008552604060002090600052845203604060002055600052600081526040600020908b600052526106ff6040600020918254613397565b61235f565b5090919293968998878a604051604081527f4a39dc06d4c0dbc64b70af90fd698a233a518aa5d07e595d983b8c0526c8f7fb61242e604083018c612fb4565b91808303602082015280612443339489612fb4565b0390a43b61244d57005b604051978896879663bc197c8160e01b9b8c89523360048a01526024890152870160a0905260a4870161247f91612fb4565b9084878303019087015261249291612fb4565b9184830301908401526124a491612d3b565b03815a602094600091f160009181612538575b5061251057505060016124c861340d565b6308c379a0146124d9575b61054e57005b6124e161342b565b806124ec57506124d3565b60405162461bcd60e51b815260206004820152908190610567906024830190612d3b565b6001600160e01b031916146104d05760405162461bcd60e51b815280610567600482016133c4565b61255191925060203d81116105f2576105e38183612e00565b90836124b7565b96949398929590979160005b855181101561260e576125778187613266565b516125828289613266565b519080600052602060048152604060002054918383106125bb576125b694939291600491600052520360406000205561324a565b612564565b508b9067616c537570706c7960c01b8f7f455243313135353a206275726e20616d6f756e74206578636565647320746f748e6040519462461bcd60e51b8652600486015260286024860152840152820152fd5b5091979095929893949661235c565b98959996949392919060005b8b5181101561265157808c6106e68261264561264c958f613266565b5192613266565b612629565b50909192939496999598612357565b60405162461bcd60e51b815260206004820152602860248201527f455243313135353a2069647320616e6420616d6f756e7473206c656e6774682081860152670dad2e6dac2e8c6d60c31b818701528790fd5b5089600052600160205260406000203360005260205261233860ff60406000205416905061232f565b346102aa576020806003193601126102aa576004356001600160401b0381116102aa5761270d903690600401612e3c565b90612716613a48565b5061272861272333613e94565b61352d565b61273182613edb565b61281c57806040518181019082825261275f816127516040820188612d3b565b03601f198101835282612e00565b5190209260405161276f81612d94565b3381526000838201526040519061278582612d94565b600082526000848301526040519561279c87612daf565b600087528487015282604087015260608601526080850152600060a08501526127d76009549283928160405193828580945193849201612d18565b8101600c81520301902055600160401b811015611ca857826128028260016128089401600955613030565b90613a97565b610977604051928284938452830190612e90565b6064906040519062461bcd60e51b825260048201526016602482015275426174746c6520616c7265616479206578697374732160501b6044820152fd5b346102aa5760203660031901126102aa576001600160a01b0361287a612cec565b16600052600b6020526020604060002054604051908152f35b346102aa5760203660031901126102aa576004356001600160401b0381116102aa576128c961194c610977923690600401612e3c565b604051918291602083526020830190612e90565b346102aa5760203660031901126102aa576004356001600160401b0381116102aa57610a216129126020923690600401612e3c565b613edb565b346102aa5760203660031901126102aa5761097761293b612936612cec565b61409f565b604051918291602083526020830190612d60565b346102aa576020806003193601126102aa5760405190600082600254916129758361304f565b928383526001908582821691826000146129e05750506001146129a0575b5061096392500383612e00565b849150600260005281600020906000915b8583106129c8575050610963935082010185612993565b805483890185015287945086939092019181016129b1565b60ff19168582015261096395151560051b85010192508791506129939050565b346102aa5760203660031901126102aa576020610a21612a1e612cec565b613e94565b346102aa5760003660031901126102aa57602060405160038152f35b346102aa576020806003193601126102aa576001600160401b036004358181116102aa57612a71903690600401612e3c565b91612a7a61316d565b8251918211611ca857612a8e60025461304f565b601f8111612b35575b5080601f8311600114612ad157508192600092612ac6575b50508160011b916000199060031b1c191617600255005b015190508280612aaf565b90601f19831693600260005282600020926000905b868210612b1d5750508360019510612b04575b505050811b01600255005b015160001960f88460031b161c19169055828080612af9565b80600185968294968601518155019501930190612ae6565b612b6090600260005282600020601f850160051c810191848610611c9e57601f0160051c0190613516565b83612a97565b346102aa5760203660031901126102aa5760043563ffffffff60e01b81168091036102aa57602090636cdb3d1360e11b8114908115612bc3575b8115612bb2575b506040519015158152f35b6301ffc9a760e01b14905082612ba7565b6303a24d0760e21b81149150612ba0565b346102aa5760003660031901126102aa57600854612bf181612f3f565b90612bff6040519283612e00565b80825260086000908152602091828401917ff3f7a9fe364faab93b216da50a3214154f22a0a2b415b23a84c8169e8b636ee3835b838310612c9a5750505050604051918083019381845251809452604083019360408160051b85010192916000955b828710612c6e5785850386f35b909192938280612c8a600193603f198a82030186528851612d60565b9601920196019592919092612c61565b600486600192612cac859a999a614066565b815201920192019190959495612c33565b346102aa5760403660031901126102aa576020612ce4612cdb612cec565b602435906131c5565b604051908152f35b600435906001600160a01b03821682036102aa57565b602435906001600160a01b03821682036102aa57565b60005b838110612d2b5750506000910152565b8181015183820152602001612d1b565b90602091612d5481518092818552858086019101612d18565b601f01601f1916010190565b90606080612d778451608085526080850190612d3b565b936020810151602085015260408101516040850152015191015290565b604081019081106001600160401b03821117611ca857604052565b60c081019081106001600160401b03821117611ca857604052565b60a081019081106001600160401b03821117611ca857604052565b608081019081106001600160401b03821117611ca857604052565b90601f801991011681019081106001600160401b03821117611ca857604052565b6001600160401b038111611ca857601f01601f191660200190565b81601f820112156102aa57803590612e5382612e21565b92612e616040519485612e00565b828452602083830101116102aa57816000926020809301838601378301015290565b9060038210156115c45752565b90612e9c818351612e83565b6020918281015183830152612ec06040820151610100806040860152840190612d3b565b926060820151606084016000905b8360028310612f215750505050608082015190600060a085015b60028210612f09575050505060e09060a0600180821b039101511691015290565b828060019260ff875116815201940191019092612ee8565b83516001600160a01b03168252928301926001929092019101612ece565b6001600160401b038111611ca85760051b60200190565b81601f820112156102aa57803591612f6d83612f3f565b92612f7b6040519485612e00565b808452602092838086019260051b8201019283116102aa578301905b828210612fa5575050505090565b81358152908301908301612f97565b90815180825260208080930193019160005b828110612fd4575050505090565b835185529381019392810192600101612fc6565b9060018060a01b038251168152608080613011602085015160a0602086015260a0850190612d3b565b9360408101516040850152606081015160608501520151151591015290565b6009548110156114335760096000526007602060002091020190600090565b90600182811c9216801561307f575b602083101461306957565b634e487b7160e01b600052602260045260246000fd5b91607f169161305e565b906040519182600082549261309d8461304f565b90818452600194858116908160001461310c57506001146130c9575b50506130c792500383612e00565b565b9093915060005260209081600020936000915b8183106130f45750506130c7935082010138806130b9565b855488840185015294850194879450918301916130dc565b9150506130c794506020925060ff191682840152151560051b82010138806130b9565b60085481101561143357600860005260206000209060021b0190600090565b6007548110156114335760076000526005602060002091020190600090565b6003546001600160a01b0316330361318157565b606460405162461bcd60e51b815260206004820152602060248201527f4f776e61626c653a2063616c6c6572206973206e6f7420746865206f776e65726044820152fd5b6001600160a01b03169081156131f257600052600060205260406000209060005260205260406000205490565b60405162461bcd60e51b815260206004820152602a60248201527f455243313135353a2061646472657373207a65726f206973206e6f742061207660448201526930b634b21037bbb732b960b11b6064820152608490fd5b60001981146110235760010190565b8051156114335760200190565b80518210156114335760209160051b010190565b1561328157565b60405162461bcd60e51b815260206004820152602f60248201527f455243313135353a2063616c6c6572206973206e6f7420746f6b656e206f776e60448201526e195c881b9bdc88185c1c1c9bdd9959608a1b6064820152608490fd5b156132e557565b60405162461bcd60e51b815260206004820152602560248201527f455243313135353a207472616e7366657220746f20746865207a65726f206164604482015264647265737360d81b6064820152608490fd5b1561333f57565b60405162461bcd60e51b815260206004820152602a60248201527f455243313135353a20696e73756666696369656e742062616c616e636520666f60448201526939103a3930b739b332b960b11b6064820152608490fd5b9190820180921161102357565b908160209103126102aa57516001600160e01b0319811681036102aa5790565b60809060208152602860208201527f455243313135353a204552433131353552656365697665722072656a656374656040820152676420746f6b656e7360c01b60608201520190565b60009060033d1161341a57565b905060046000803e60005160e01c90565b600060443d1061348857604051600319913d83016004833e81516001600160401b03918282113d60248401111761348b57818401948551938411613493573d8501016020848701011161348b575061348892910160200190612e00565b90565b949350505050565b50949350505050565b60809060208152603460208201527f455243313135353a207472616e7366657220746f206e6f6e20455243313135356040820152732932b1b2b4bb32b91034b6b83632b6b2b73a32b960611b60608201520190565b604051906134fe82612d94565b600182526020368184013761351282613259565b5290565b818110613521575050565b60008155600101613516565b1561353457565b60405162461bcd60e51b815260206004820152601c60248201527f506c6561736520726567697374657220706c61796572206669727374000000006044820152606490fd5b608061358433613fc6565b0151613a0b5761359661272333613e94565b61359e613d0c565b506135a833613cc0565b80600a0390600a8211611023576040908151602090818101904282523360601b858201526034815260608101966001600160401b0392828910848a1117611ca85760ff60646006928b8a528551902006160660ff81169182156139f5575b60ff92506136138a612de5565b89521696608082019188835260c060a0820191878352019088825260085493600160401b851015611ca8576001958686016008556136508661312f565b959095611cbe57518051918211611ca85761366b865461304f565b601f81116139c5575b508890601f831160011461395d576003959493929160009183613952575b505060001982871b1c191690881b1785555b51868501555160028401555191015533600052600b8352846000205583516136cb81612d94565b600381526203078360ec1b838201523315613904576136e9876134f1565b828651916136f683612d94565b8183528536818501378161370984613259565b526000825b6138c0575b5050505086600052600083528460002033600052835284600020805490838201809211611023575584518781528284820152600033917fc3d58168c5ae7397731d063d5bbf3d657854427343f4c083240f7aacaa2d0f62883392a4333b6137b8575b505061378260065461324a565b60065582519485528401528201527fca8ab07e9ed17d119729fc652dd24df9d8430ca862dda4631925b5b4b99da36260603392a2565b84518381806137f663f23a6e6160e01b95868352336004840152600060248401528c604484015287606484015260a0608484015260a4830190612d3b565b03816000335af1600091816138a1575b5061387857505061381561340d565b6308c379a014613844575b61382c575b3880613775565b825162461bcd60e51b8152806105676004820161349c565b61384c61342b565b806138575750613820565b82610567865192839262461bcd60e51b845260048401526024830190612d3b565b6001600160e01b03191614905061382557825162461bcd60e51b815280610567600482016133c4565b6138b9919250853d87116105f2576105e38183612e00565b9038613806565b81518110156138ff57806138d76138f99286613266565b516138e28285613266565b51600052600489526106ff8b600020918254613397565b8261370e565b613713565b845162461bcd60e51b815260048101849052602160248201527f455243313135353a206d696e7420746f20746865207a65726f206164647265736044820152607360f81b6064820152608490fd5b015190503880613692565b949392918891601f19821690886000528b6000209160005b8d8282106139af575050978360039910613997575b505050811b0185556136a4565b015160001983891b60f8161c1916905538808061398a565b838b015185558d96909401939283019201613975565b6139ef90876000528a600020601f850160051c8101918c8610611c9e57601f0160051c0190613516565b38613674565b905060ff821461102357600160ff920190613606565b60405162461bcd60e51b8152602060048201526015602482015274506c6179657220697320696e206120626174746c6560581b6044820152606490fd5b604090600060a08351613a5a81612daf565b80948382528360208301526060818301528051613a7681612d94565b813682376060830152805190613a8b82612d94565b36823760808201520152565b929190611cbe578051926003808510156115c45760ff1982541660ff80961617825560209081840151906001918285015560029081850160408701518051906001600160401b038211611ca8578190613af0845461304f565b601f8111613c37575b508790601f8311600114613bd557600092613bca575b505060001982851b1c191690851b1790555b606086015160005b838110613bae5750505090608085015191600093845b828110613b7e575050505050600582015560a09091015160069190910180546001600160a01b0319166001600160a01b03929092169190911790559050565b90919282613ba28697848d85995116919060031b60ff811b9283911b169119161790565b96019493929101613b3f565b81516001600160a01b0316878201840155908501908401613b29565b015190503880613b0f565b90879350601f1983169185600052896000209260005b8b828210613c215750508411613c09575b505050811b019055613b21565b015160001983871b60f8161c19169055388080613bfc565b8385015186558b97909501949384019301613beb565b613c61908560005289600020601f850160051c8101918b8610611c9e57601f0160051c0190613516565b38613af9565b15613c6e57565b60405162461bcd60e51b815260206004820152601b60248201527f596f7520617265206e6f7420696e207468697320626174746c652100000000006044820152606490fd5b9190820391821161102357565b600a9060405160208101914483524260408301526bffffffffffffffffffffffff199060601b16606082015260548152613cf981612de5565b519020068015613d065790565b50600590565b60405190613d1982612de5565b60006060838181528260208201528260408201520152565b613d39613a48565b50815160038110156115c457600214613e58576002825260018060a01b038091168060a08401527fae6e5eafb6cd1cb4b139e7a0b9140aa182ee7d50e99f50d660156f79212acbc06040840192613d91858551613f0c565b80606086018181515116600052600a602052600a6002613e176040600020548560208651015116600052604060002054908484613df46004613dd28561314e565b50019360ff199485815416905560196003613dec8361314e565b50015561314e565b5001556004613e028361314e565b500190815416905560196003613dec8361314e565b5001555180518216858103613e4f57506020015116935b5193613e496040519283926020845216956020830190612d3b565b0390a390565b91505093613e2e565b60405162461bcd60e51b815260206004820152601460248201527310985d1d1b1948185b1c9958591e48195b99195960621b6044820152606490fd5b6001600160a01b03166000908152600a6020526040902054613eb557600090565b600190565b6001600160a01b03166000908152600b6020526040902054613eb557600090565b6020613ef4918160405193828580945193849201612d18565b8101600c8152030190205415600014613eb557600090565b90613f1682613edb565b15613f3a57612802610bff60206130c7948160405193828580945193849201612d18565b60405162461bcd60e51b815260206004820152601460248201527310985d1d1b1948191bd95cdb89dd08195e1a5cdd60621b6044820152606490fd5b90604051613f8381612dca565b608060ff6004839560018060a01b038154168552613fa360018201613089565b602086015260028101546040860152600381015460608601520154161515910152565b6080604051613fd481612dca565b6000918183809352606060208201528260408201528260608201520152613ffa82613e94565b15614029576001600160a01b039091168152600a6020526040902054613488906140239061314e565b50613f76565b60405162461bcd60e51b8152602060048201526015602482015274506c6179657220646f65736e27742065786973742160581b6044820152606490fd5b9060405161407381612de5565b60606003829461408281613089565b845260018101546020850152600281015460408501520154910152565b6140a7613d0c565b506140b181613eba565b156140dd5760018060a01b0316600052600b6020526134886140d760406000205461312f565b50614066565b60405162461bcd60e51b815260206004820152601960248201527847616d6520746f6b656e20646f65736e27742065786973742160381b6044820152606490fd5b9060405161412b81612daf565b809260ff81541660038110156115c45782526001808201549060209182850152600290614159828501613089565b60408601526040519182600386016000915b8383106141c2575050505050908161418560a09493612d94565b60608501526040519060ff6005840154818116845260081c16908201526141ab81612d94565b6080840152600601546000196001831b0116910152565b81546001600160a01b031681529184019190840190860161416b565b6141e6613a48565b506141f081613edb565b1561421a57614214610bff6020613488938160405193828580945193849201612d18565b5061411e565b60405162461bcd60e51b8152602060048201526015602482015274426174746c6520646f65736e27742065786973742160581b6044820152606490fd5b801561431c5780816000925b614308575061427182612e21565b9161427f6040519384612e00565b80835281601f1961428f83612e21565b01916020923684870137905b6142a55750505090565b60001990808201908111611023578093600a808204809404811184151516611023576142d760ff928392860290613cb3565b166030019081116110235785518210156114335760f81b6001600160f81b03191660001a908501830153918261429b565b91614314600a9161324a565b920480614263565b5060405161432981612d94565b60018152600360fc1b60208201529056fea2646970667358221220a4015206517a459f2447aeffd0aa4bf8738b5f1c142eba67ed3fedcd4f5ae18564736f6c63430008100033405787fa12a823e0f2b7631cc41b3ba8828b3321ca811111fa75cd3aa3bb5ace",
  "linkReferences": {},
  "deployedLinkReferences": {}
}